:040A120002000205D7
:0C0A05000A083F065B4F666D7D077F6F9F
:1009E500E4FDFCC3ED9FEC9E5015E4FBFA0BBB0048
:0F09F500010ABA04F8BBFBF50DBD00010C80E44C
:010A040022CF
:10098200C2A0C2A1C2A2C2A374082FF8E6F580EDEC
:1009920014600E14600F1460102403700ED2A08035
:1009A2000AD2A18006D2A28002D2A37F017E0002D7
:0209B20009E555
:1009B40078127C007D007BFF7A0A79127E007F0426
:1009C4001208D0E4FDAF121209827D01AF1312099F
:1009D400827D02AF141209827D03AF151209828051
:0109E400E230
:030000000208F6FD
:0C08F600787FE4F6D8FD75811502093DFD
:10080000E709F608DFFA8046E709F208DFFA803EDA
:1008100088828C83E709F0A3DFFA8032E309F608C7
:10082000DFFA8078E309F208DFFA807088828C832F
:10083000E309F0A3DFFA806489828A83E0A3F608E3
:10084000DFFA805889828A83E0A3F208DFFA804CBD
:1008500080D280FA80C680D4806980F28033801094
:1008600080A680EA809A80A880DA80E280CA8033FD
:1008700089828A83ECFAE493A3C8C582C8CCC58375
:10088000CCF0A3C8C582C8CCC583CCDFE9DEE78045
:100890000D89828A83E493A3F608DFF9ECFAA9F0C4
:1008A000EDFB2289828A83ECFAE0A3C8C582C8CC1A
:1008B000C583CCF0A3C8C582C8CCC583CCDFEADE33
:1008C000E880DB89828A83E493A3F208DFF980CC95
:1008D00088F0EF60010E4E60C388F0ED2402B4048E
:1008E0000050B9F582EB2402B4040050AF23234535
:0608F00082239008507302
:100902000209B4E493A3F8E493A34003F68001F24E
:1009120008DFF48029E493A3F85407240CC8C333F6
:10092200C4540F4420C8834004F456800146F6DFC5
:10093200E4800B0102040810204080900A05E47E46
:10094200019360BCA3FF543F30E509541FFEE493BA
:10095200A360010ECF54C025E060A840B8E493A381
:10096200FAE493A3F8E493A3C8C582C8CAC583CAAC
:10097200F0A3C8C582C8CAC583CADFE9DEE780BE64
:010A110000E4
:00000001FF
