:030971000108007A
:0708FA0012095A7F0C7E0079
:10090100E4FDFCC3ED9FEC9E5015E4FBFA0BBB002C
:10091100010ABA04F8BBFBF50DBD00010C80E4220D
:10095A008FA0C296C297D2957F017E00120901C26A
:02096A009522D4
:100944008FA0C296D297D2957F017E00120901C270
:06095400957F0602095A1E
:1008C500D2AFD2AC7F381208FA7F0F1208FA7F0137
:1008D50012095A7F0A7E001209017F8012095A7F88
:1008E5000A7E00120901120901758920758DFD75B1
:0508F5009850D28E2294
:10092100A9070508E508B410057FC012095AB908DE
:10093100047F108005B90D057F0102095AAF01122C
:0309410009442244
:0300230002088C44
:10088C00C0E0C0D075D000C001C002C003C004C01D
:10089C0005C006C00730980EC298AF998F99309951
:1008AC00FDC299120921D007D006D005D004D0037F
:0908BC00D002D001D0D0D0E0320E
:05096C001208C580FE29
:03000000020800F3
:0C080000787FE4F6D8FD758108020847F7
:10080C0002096CE493A3F8E493A34003F68001F28D
:10081C0008DFF48029E493A3F85407240CC8C333ED
:10082C00C4540F4420C8834004F456800146F6DFBC
:10083C00E4800B0102040810204080900971E47ED2
:10084C00019360BCA3FF543F30E509541FFEE493B1
:10085C00A360010ECF54C025E060A840B8E493A378
:10086C00FAE493A3F8E493A3C8C582C8CAC583CAA3
:10087C00F0A3C8C582C8CAC583CADFE9DEE780BE5B
:010974000082
:00000001FF
