:100958000216001401150B03180207000D083F06C4
:0B0968005B4F666D7D077F6F4077736B
:10097400758DF4758B48D28E208FFDC28EC28F2266
:09098400E4F58A758C4CD28C223A
:03000B0002088C5C
:10088C00C0E0C0D075D000C007120984E51745162A
:10089C007038F516751714051AE51AC3943C4032D6
:1008AC000519751A00E519C3943C40267519000505
:1008BC0018E518C3940C401A751800E515B40B0410
:1008CC007F0C80027F0B8F158008E51715177002BF
:0908DC001516D007D0D0D0E0328F
:09098D0075A88275890102098434
:0708E50075F00A84AFF00D6D
:1008EC00C2A2C2A3C2A4C2A5C2A6C2A774082FF8F2
:1008FC00E6F580ED7002D2A2BD0102D2A3BD0202C8
:10090C00D2A4BD0302D2A5BD0402D2A6BD0502D25B
:04091C00A7020974B1
:10092000751B00751C5012098DE51875F00A84FFBF
:10093000E4FD1208ECE5181208E50D7F0A1208EC38
:10094000E51975F00A84FF0D1208ECE5191208E5A7
:080950000DAF151208EC80D177
:03000000020800F3
:0C080000787FE4F6D8FD75811C020847E3
:10080C00020920E493A3F8E493A34003F68001F2D9
:10081C0008DFF48029E493A3F85407240CC8C333ED
:10082C00C4540F4420C8834004F456800146F6DFBC
:10083C00E4800B0102040810204080900958E47EEB
:10084C00019360BCA3FF543F30E509541FFEE493B1
:10085C00A360010ECF54C025E060A840B8E493A378
:10086C00FAE493A3F8E493A3C8C582C8CAC583CAA3
:10087C00F0A3C8C582C8CAC583CADFE9DEE780BE5B
:010973000083
:00000001FF
