:0F0A29003F065B4F666D7D077F6F030405060771
:100A0900E4FDFCC3ED9FEC9E5015E4FBFA0BBB0023
:0F0A1900010ABA04F8BBFBF50DBD00010C80E427
:010A280022AB
:10094B0078087C007D007BFF7A0A79297E007F0A7C
:10095B001208D078127C007D007BFF7A0A79337EF7
:10096B00007F051208D0751705E4F5A0D2A0D2A11F
:10097B00E4F518E518C3951750F674122518F8E628
:10098B00FF7E007C037DE81208F674082FF8E6F56D
:10099B0080D2A0C2A1C2A2C2A37F0A7E00120A0902
:1009AB0074122518F8E675F064842408F8E6F580CF
:1009BB00C2A0D2A1C2A2C2A37F0A120A0974122535
:1009CB0018F8E675F00A842408F8E6F580C2A0C290
:1009DB00A1D2A2C2A37F0A120A0974122518F8E643
:1009EB0075F00A84740825F0F8E6F580C2A0C2A160
:0E09FB00C2A2D2A37F1E120A09051802097EAD
:03000000020A38B9
:0C0A3800787FE4F6D8FD75811802094BA8
:10080000E709F608DFFA8046E709F208DFFA803EDA
:1008100088828C83E709F0A3DFFA8032E309F608C7
:10082000DFFA8078E309F208DFFA807088828C832F
:10083000E309F0A3DFFA806489828A83E0A3F608E3
:10084000DFFA805889828A83E0A3F208DFFA804CBD
:1008500080D280FA80C680D4806980F28033801094
:1008600080A680EA809A80A880DA80E280CA8033FD
:1008700089828A83ECFAE493A3C8C582C8CCC58375
:10088000CCF0A3C8C582C8CCC583CCDFE9DEE78045
:100890000D89828A83E493A3F608DFF9ECFAA9F0C4
:1008A000EDFB2289828A83ECFAE0A3C8C582C8CC1A
:1008B000C583CCF0A3C8C582C8CCC583CCDFEADE33
:1008C000E880DB89828A83E493A3F208DFF980CC95
:1008D00088F0EF60010E4E60C388F0ED2402B4048E
:1008E0000050B9F582EB2402B4040050AF23234535
:0608F00082239008507302
:1008F600BC000BBE0029EF8DF084FFADF022E4CCE6
:10090600F875F008EF2FFFEE33FEEC33FCEE9DECAE
:10091600984005FCEE9DFE0FD5F0E9E4CEFD22EDF4
:10092600F8F5F0EE8420D21CFEADF075F008EF2F3E
:10093600FFED33FD4007985006D5F0F222C398FD2F
:050946000FD5F0EA22CC
:00000001FF
