:0C09100048656C6C6F00576F726C6400DF
:070898001208EC7F0A7E004C
:10089F00E4FDFCC3ED9FEC9E5015E4FBFA0BBB008F
:0F08AF00010ABA04F8BBFBF50DBD00010C80E493
:0108BE002217
:1008EC008FA0C2B3C2B2D2B47F017E0012089FC2E5
:0208FC00B42224
:1008FE008FA0C2B3D2B2D2B47F017E0012089FC2C3
:02090E00B42211
:1008BF007F381208EC7F0C7E0012089F7F0F120802
:0808CF00EC7F0C7E0002089F83
:060800008B088A09890A39
:100806007F011208987F80120898E4F50EF50FAB69
:1008160008AA09A90A850F82850E8312086BFF6054
:10082600141208FE050FE50F7002050E7F1E7E00EE
:1008360012089F80DAE4F50EF50F7FC0120898AB18
:100846000BAA0CA90D850F82850E8312086BFF601B
:10085600AF1208FE050FE50F7002050E7F1E7E0023
:0508660012089F80DA7A
:1008D7001208BF750BFF750C09750D167BFF7A099A
:0508E700791002080079
:0300000002091CD6
:0C091C00787FE4F6D8FD75810F0208D743
:10086B00BB010CE58229F582E5833AF583E0225042
:10087B0006E92582F8E622BBFE06E92582F8E2228C
:0D088B00E58229F582E5833AF583E49322A6
:00000001FF
