:0A0983003F065B4F666D7D077F6F36
:10095700E4FDFCC3ED9FEC9E5015E4FBFA0BBB00D6
:0F096700010ABA04F8BBFBF50DBD00010C80E4DA
:01097600225E
:1008F60078087C007D007BFF7A0979837E007F0A79
:100906001208D075120A751301751407E4F5A0D202
:10091600A0D2A17901E9D3951250F8E51489F0A483
:10092600F51375F00A842408F8E6F580D2A0C2A172
:100936007F027E00120957E51375F00A84740825B4
:10094600F0F8E6F580C2A0D2A17F1E1209570980F1
:01095600C4DC
:030000000209777B
:0C097700787FE4F6D8FD7581140208F6C4
:10080000E709F608DFFA8046E709F208DFFA803EDA
:1008100088828C83E709F0A3DFFA8032E309F608C7
:10082000DFFA8078E309F208DFFA807088828C832F
:10083000E309F0A3DFFA806489828A83E0A3F608E3
:10084000DFFA805889828A83E0A3F208DFFA804CBD
:1008500080D280FA80C680D4806980F28033801094
:1008600080A680EA809A80A880DA80E280CA8033FD
:1008700089828A83ECFAE493A3C8C582C8CCC58375
:10088000CCF0A3C8C582C8CCC583CCDFE9DEE78045
:100890000D89828A83E493A3F608DFF9ECFAA9F0C4
:1008A000EDFB2289828A83ECFAE0A3C8C582C8CC1A
:1008B000C583CCF0A3C8C582C8CCC583CCDFEADE33
:1008C000E880DB89828A83E493A3F208DFF980CC95
:1008D00088F0EF60010E4E60C388F0ED2402B4048E
:1008E0000050B9F582EB2402B4040050AF23234535
:0608F00082239008507302
:00000001FF
