:0C086C0048656C6C6F20576F726C640064
:0C086000758920758DFD759850D28E2290
:10082D008B088A09890AE4FFAB08AA09A90A8F82F5
:10083D00758300120800600AF5993099FDC2990F71
:05084D0080E6C28E22CE
:0E0852001208607BFF7A08796C12082D80FE78
:030000000208787B
:0C087800787FE4F6D8FD75810A02085272
:10080000BB010CE58229F582E5833AF583E02250AD
:1008100006E92582F8E622BBFE06E92582F8E222F7
:0D082000E58229F582E5833AF583E4932211
:00000001FF
