:10098500000101020305080D15223F065B4F666D48
:040995007D077F6FEC
:10096500E4FDFCC3ED9FEC9E5015E4FBFA0BBB00C8
:0F097500010ABA04F8BBFBF50DBD00010C80E4CC
:010984002250
:1008F60078087C007D007BFF7A0979857E007F0A77
:100906001208D078127C007D007BFF7A09798F7EF1
:10091600007F0A1208D0751C0AE4F5A0D2A0D2A165
:10092600E4F9E9C3951C50F8740829F8E675F00A4D
:10093600842412F8E6F580D2A0C2A17F0A7E0012B6
:100946000965740829F8E675F00A84741225F0F82A
:0F095600E6F580C2A0D2A17F0A1209650980C30D
:0300000002099959
:0C099900787FE4F6D8FD75811C0208F69A
:10080000E709F608DFFA8046E709F208DFFA803EDA
:1008100088828C83E709F0A3DFFA8032E309F608C7
:10082000DFFA8078E309F208DFFA807088828C832F
:10083000E309F0A3DFFA806489828A83E0A3F608E3
:10084000DFFA805889828A83E0A3F208DFFA804CBD
:1008500080D280FA80C680D4806980F28033801094
:1008600080A680EA809A80A880DA80E280CA8033FD
:1008700089828A83ECFAE493A3C8C582C8CCC58375
:10088000CCF0A3C8C582C8CCC583CCDFE9DEE78045
:100890000D89828A83E493A3F608DFF9ECFAA9F0C4
:1008A000EDFB2289828A83ECFAE0A3C8C582C8CC1A
:1008B000C583CCF0A3C8C582C8CCC583CCDFEADE33
:1008C000E880DB89828A83E493A3F208DFF980CC95
:1008D00088F0EF60010E4E60C388F0ED2402B4048E
:1008E0000050B9F582EB2402B4040050AF23234535
:0608F00082239008507302
:00000001FF
